{
  "_format": "hh-sol-artifact-1",
  "contractName": "LandRegistry",
  "sourceName": "contracts/LandRegistry.sol",
  "abi": [
    {
      "inputs": [],
      "stateMutability": "nonpayable",
      "type": "constructor"
    },
    {
      "anonymous": false,
      "inputs": [
        {
          "indexed": true,
          "internalType": "uint256",
          "name": "id",
          "type": "uint256"
        },
        {
          "indexed": true,
          "internalType": "address",
          "name": "newOwner",
          "type": "address"
        }
      ],
      "name": "LandPurchased",
      "type": "event"
    },
    {
      "anonymous": false,
      "inputs": [
        {
          "indexed": true,
          "internalType": "uint256",
          "name": "id",
          "type": "uint256"
        },
        {
          "indexed": true,
          "internalType": "address",
          "name": "owner",
          "type": "address"
        }
      ],
      "name": "LandRegistered",
      "type": "event"
    },
    {
      "anonymous": false,
      "inputs": [
        {
          "indexed": true,
          "internalType": "uint256",
          "name": "id",
          "type": "uint256"
        }
      ],
      "name": "LandVerified",
      "type": "event"
    },
    {
      "inputs": [
        {
          "internalType": "uint256",
          "name": "_id",
          "type": "uint256"
        }
      ],
      "name": "buyLand",
      "outputs": [],
      "stateMutability": "payable",
      "type": "function"
    },
    {
      "inputs": [
        {
          "internalType": "uint256",
          "name": "_id",
          "type": "uint256"
        }
      ],
      "name": "getLand",
      "outputs": [
        {
          "components": [
            {
              "internalType": "uint256",
              "name": "id",
              "type": "uint256"
            },
            {
              "internalType": "string",
              "name": "fullName",
              "type": "string"
            },
            {
              "internalType": "string",
              "name": "surveyNumber",
              "type": "string"
            },
            {
              "internalType": "string",
              "name": "propertyType",
              "type": "string"
            },
            {
              "internalType": "string",
              "name": "location",
              "type": "string"
            },
            {
              "internalType": "uint256",
              "name": "area",
              "type": "uint256"
            },
            {
              "internalType": "uint256",
              "name": "price",
              "type": "uint256"
            },
            {
              "internalType": "string",
              "name": "ipfsHash",
              "type": "string"
            },
            {
              "internalType": "address payable",
              "name": "owner",
              "type": "address"
            },
            {
              "internalType": "bool",
              "name": "isRegistered",
              "type": "bool"
            },
            {
              "internalType": "bool",
              "name": "isVerified",
              "type": "bool"
            },
            {
              "internalType": "bool",
              "name": "isForSale",
              "type": "bool"
            }
          ],
          "internalType": "struct LandRegistry.Land",
          "name": "",
          "type": "tuple"
        }
      ],
      "stateMutability": "view",
      "type": "function"
    },
    {
      "inputs": [],
      "name": "government",
      "outputs": [
        {
          "internalType": "address",
          "name": "",
          "type": "address"
        }
      ],
      "stateMutability": "view",
      "type": "function"
    },
    {
      "inputs": [],
      "name": "landCount",
      "outputs": [
        {
          "internalType": "uint256",
          "name": "",
          "type": "uint256"
        }
      ],
      "stateMutability": "view",
      "type": "function"
    },
    {
      "inputs": [
        {
          "internalType": "uint256",
          "name": "",
          "type": "uint256"
        }
      ],
      "name": "lands",
      "outputs": [
        {
          "internalType": "uint256",
          "name": "id",
          "type": "uint256"
        },
        {
          "internalType": "string",
          "name": "fullName",
          "type": "string"
        },
        {
          "internalType": "string",
          "name": "surveyNumber",
          "type": "string"
        },
        {
          "internalType": "string",
          "name": "propertyType",
          "type": "string"
        },
        {
          "internalType": "string",
          "name": "location",
          "type": "string"
        },
        {
          "internalType": "uint256",
          "name": "area",
          "type": "uint256"
        },
        {
          "internalType": "uint256",
          "name": "price",
          "type": "uint256"
        },
        {
          "internalType": "string",
          "name": "ipfsHash",
          "type": "string"
        },
        {
          "internalType": "address payable",
          "name": "owner",
          "type": "address"
        },
        {
          "internalType": "bool",
          "name": "isRegistered",
          "type": "bool"
        },
        {
          "internalType": "bool",
          "name": "isVerified",
          "type": "bool"
        },
        {
          "internalType": "bool",
          "name": "isForSale",
          "type": "bool"
        }
      ],
      "stateMutability": "view",
      "type": "function"
    },
    {
      "inputs": [
        {
          "internalType": "uint256",
          "name": "_id",
          "type": "uint256"
        }
      ],
      "name": "listLandForSale",
      "outputs": [],
      "stateMutability": "nonpayable",
      "type": "function"
    },
    {
      "inputs": [
        {
          "internalType": "string",
          "name": "_fullName",
          "type": "string"
        },
        {
          "internalType": "string",
          "name": "_surveyNumber",
          "type": "string"
        },
        {
          "internalType": "string",
          "name": "_propertyType",
          "type": "string"
        },
        {
          "internalType": "string",
          "name": "_location",
          "type": "string"
        },
        {
          "internalType": "uint256",
          "name": "_area",
          "type": "uint256"
        },
        {
          "internalType": "uint256",
          "name": "_price",
          "type": "uint256"
        },
        {
          "internalType": "string",
          "name": "_ipfsHash",
          "type": "string"
        }
      ],
      "name": "registerLand",
      "outputs": [],
      "stateMutability": "nonpayable",
      "type": "function"
    },
    {
      "inputs": [
        {
          "internalType": "uint256",
          "name": "_id",
          "type": "uint256"
        }
      ],
      "name": "verifyLand",
      "outputs": [],
      "stateMutability": "nonpayable",
      "type": "function"
    }
  ],
  "bytecode": "0x60806040526000805534801561001457600080fd5b5033600260006101000a81548173ffffffffffffffffffffffffffffffffffffffff021916908373ffffffffffffffffffffffffffffffffffffffff160217905550611e28806100656000396000f3fe60806040526004361061007b5760003560e01c8063d7bce6581161004e578063d7bce65814610119578063e261f1e514610144578063f02dd53f1461018c578063f9c43bdf146101c95761007b565b806304888243146100805780632672f526146100a9578063b7e735ac146100d4578063ced39558146100fd575b600080fd5b34801561008c57600080fd5b506100a760048036038101906100a2919061110b565b6101f2565b005b3480156100b557600080fd5b506100be61032a565b6040516100cb9190611179565b60405180910390f35b3480156100e057600080fd5b506100fb60048036038101906100f691906112da565b610350565b005b6101176004803603810190610112919061110b565b610577565b005b34801561012557600080fd5b5061012e6107d1565b60405161013b9190611417565b60405180910390f35b34801561015057600080fd5b5061016b6004803603810190610166919061110b565b6107d7565b6040516101839c9b9a999897969594939291906114ed565b60405180910390f35b34801561019857600080fd5b506101b360048036038101906101ae919061110b565b610b26565b6040516101c09190611761565b60405180910390f35b3480156101d557600080fd5b506101f060048036038101906101eb919061110b565b610ef3565b005b6001600082815260200190815260200160002060080160009054906101000a900473ffffffffffffffffffffffffffffffffffffffff1673ffffffffffffffffffffffffffffffffffffffff163373ffffffffffffffffffffffffffffffffffffffff1614610296576040517f08c379a000000000000000000000000000000000000000000000000000000000815260040161028d906117cf565b60405180910390fd5b6001600082815260200190815260200160002060080160159054906101000a900460ff166102f9576040517f08c379a00000000000000000000000000000000000000000000000000000000081526004016102f09061183b565b60405180910390fd5b600180600083815260200190815260200160002060080160166101000a81548160ff02191690831515021790555050565b600260009054906101000a900473ffffffffffffffffffffffffffffffffffffffff1681565b6000808154809291906103629061188a565b919050555060405180610180016040528060005481526020018881526020018781526020018681526020018581526020018481526020018381526020018281526020013373ffffffffffffffffffffffffffffffffffffffff16815260200160011515815260200160001515815260200160001515815250600160008054815260200190815260200160002060008201518160000155602082015181600101908161040d9190611ade565b5060408201518160020190816104239190611ade565b5060608201518160030190816104399190611ade565b50608082015181600401908161044f9190611ade565b5060a0820151816005015560c0820151816006015560e08201518160070190816104799190611ade565b506101008201518160080160006101000a81548173ffffffffffffffffffffffffffffffffffffffff021916908373ffffffffffffffffffffffffffffffffffffffff1602179055506101208201518160080160146101000a81548160ff0219169083151502179055506101408201518160080160156101000a81548160ff0219169083151502179055506101608201518160080160166101000a81548160ff0219169083151502179055509050503373ffffffffffffffffffffffffffffffffffffffff166000547fcb4990052f95f6057496d19524f6c3163f50af9f33f2c15b092928e03414323e60405160405180910390a350505050505050565b60006001600083815260200190815260200160002090508060080160169054906101000a900460ff166105df576040517f08c379a00000000000000000000000000000000000000000000000000000000081526004016105d690611bfc565b60405180910390fd5b8060060154341015610626576040517f08c379a000000000000000000000000000000000000000000000000000000000815260040161061d90611c68565b60405180910390fd5b8060080160009054906101000a900473ffffffffffffffffffffffffffffffffffffffff1673ffffffffffffffffffffffffffffffffffffffff163373ffffffffffffffffffffffffffffffffffffffff16036106b8576040517f08c379a00000000000000000000000000000000000000000000000000000000081526004016106af90611cd4565b60405180910390fd5b60008160080160009054906101000a900473ffffffffffffffffffffffffffffffffffffffff169050338260080160006101000a81548173ffffffffffffffffffffffffffffffffffffffff021916908373ffffffffffffffffffffffffffffffffffffffff16021790555060008260080160166101000a81548160ff0219169083151502179055508073ffffffffffffffffffffffffffffffffffffffff166108fc349081150290604051600060405180830381858888f19350505050158015610787573d6000803e3d6000fd5b503373ffffffffffffffffffffffffffffffffffffffff16837f349dfbfc5131b8cc0d98594c2fbb93e8c6bba0486d6bd50dde81212bf50ad2cc60405160405180910390a3505050565b60005481565b600160205280600052604060002060009150905080600001549080600101805461080090611901565b80601f016020809104026020016040519081016040528092919081815260200182805461082c90611901565b80156108795780601f1061084e57610100808354040283529160200191610879565b820191906000526020600020905b81548152906001019060200180831161085c57829003601f168201915b50505050509080600201805461088e90611901565b80601f01602080910402602001604051908101604052809291908181526020018280546108ba90611901565b80156109075780601f106108dc57610100808354040283529160200191610907565b820191906000526020600020905b8154815290600101906020018083116108ea57829003601f168201915b50505050509080600301805461091c90611901565b80601f016020809104026020016040519081016040528092919081815260200182805461094890611901565b80156109955780601f1061096a57610100808354040283529160200191610995565b820191906000526020600020905b81548152906001019060200180831161097857829003601f168201915b5050505050908060040180546109aa90611901565b80601f01602080910402602001604051908101604052809291908181526020018280546109d690611901565b8015610a235780601f106109f857610100808354040283529160200191610a23565b820191906000526020600020905b815481529060010190602001808311610a0657829003601f168201915b505050505090806005015490806006015490806007018054610a4490611901565b80601f0160208091040260200160405190810160405280929190818152602001828054610a7090611901565b8015610abd5780601f10610a9257610100808354040283529160200191610abd565b820191906000526020600020905b815481529060010190602001808311610aa057829003601f168201915b5050505050908060080160009054906101000a900473ffffffffffffffffffffffffffffffffffffffff16908060080160149054906101000a900460ff16908060080160159054906101000a900460ff16908060080160169054906101000a900460ff1690508c565b610b2e611044565b600160008381526020019081526020016000206040518061018001604052908160008201548152602001600182018054610b6790611901565b80601f0160208091040260200160405190810160405280929190818152602001828054610b9390611901565b8015610be05780601f10610bb557610100808354040283529160200191610be0565b820191906000526020600020905b815481529060010190602001808311610bc357829003601f168201915b50505050508152602001600282018054610bf990611901565b80601f0160208091040260200160405190810160405280929190818152602001828054610c2590611901565b8015610c725780601f10610c4757610100808354040283529160200191610c72565b820191906000526020600020905b815481529060010190602001808311610c5557829003601f168201915b50505050508152602001600382018054610c8b90611901565b80601f0160208091040260200160405190810160405280929190818152602001828054610cb790611901565b8015610d045780601f10610cd957610100808354040283529160200191610d04565b820191906000526020600020905b815481529060010190602001808311610ce757829003601f168201915b50505050508152602001600482018054610d1d90611901565b80601f0160208091040260200160405190810160405280929190818152602001828054610d4990611901565b8015610d965780601f10610d6b57610100808354040283529160200191610d96565b820191906000526020600020905b815481529060010190602001808311610d7957829003601f168201915b505050505081526020016005820154815260200160068201548152602001600782018054610dc390611901565b80601f0160208091040260200160405190810160405280929190818152602001828054610def90611901565b8015610e3c5780601f10610e1157610100808354040283529160200191610e3c565b820191906000526020600020905b815481529060010190602001808311610e1f57829003601f168201915b505050505081526020016008820160009054906101000a900473ffffffffffffffffffffffffffffffffffffffff1673ffffffffffffffffffffffffffffffffffffffff1673ffffffffffffffffffffffffffffffffffffffff1681526020016008820160149054906101000a900460ff161515151581526020016008820160159054906101000a900460ff161515151581526020016008820160169054906101000a900460ff1615151515815250509050919050565b600260009054906101000a900473ffffffffffffffffffffffffffffffffffffffff1673ffffffffffffffffffffffffffffffffffffffff163373ffffffffffffffffffffffffffffffffffffffff1614610f83576040517f08c379a0000000000000000000000000000000000000000000000000000000008152600401610f7a90611d66565b60405180910390fd5b6001600082815260200190815260200160002060080160149054906101000a900460ff16610fe6576040517f08c379a0000000000000000000000000000000000000000000000000000000008152600401610fdd90611dd2565b60405180910390fd5b600180600083815260200190815260200160002060080160156101000a81548160ff021916908315150217905550807f339a5d26292b459dbd1a911e53069f56bd3610e5ca60a312043fc90189c388bf60405160405180910390a250565b6040518061018001604052806000815260200160608152602001606081526020016060815260200160608152602001600081526020016000815260200160608152602001600073ffffffffffffffffffffffffffffffffffffffff1681526020016000151581526020016000151581526020016000151581525090565b6000604051905090565b600080fd5b600080fd5b6000819050919050565b6110e8816110d5565b81146110f357600080fd5b50565b600081359050611105816110df565b92915050565b600060208284031215611121576111206110cb565b5b600061112f848285016110f6565b91505092915050565b600073ffffffffffffffffffffffffffffffffffffffff82169050919050565b600061116382611138565b9050919050565b61117381611158565b82525050565b600060208201905061118e600083018461116a565b92915050565b600080fd5b600080fd5b6000601f19601f8301169050919050565b7f4e487b7100000000000000000000000000000000000000000000000000000000600052604160045260246000fd5b6111e78261119e565b810181811067ffffffffffffffff82111715611206576112056111af565b5b80604052505050565b60006112196110c1565b905061122582826111de565b919050565b600067ffffffffffffffff821115611245576112446111af565b5b61124e8261119e565b9050602081019050919050565b82818337600083830152505050565b600061127d6112788461122a565b61120f565b90508281526020810184848401111561129957611298611199565b5b6112a484828561125b565b509392505050565b600082601f8301126112c1576112c0611194565b5b81356112d184826020860161126a565b91505092915050565b600080600080600080600060e0888a0312156112f9576112f86110cb565b5b600088013567ffffffffffffffff811115611317576113166110d0565b5b6113238a828b016112ac565b975050602088013567ffffffffffffffff811115611344576113436110d0565b5b6113508a828b016112ac565b965050604088013567ffffffffffffffff811115611371576113706110d0565b5b61137d8a828b016112ac565b955050606088013567ffffffffffffffff81111561139e5761139d6110d0565b5b6113aa8a828b016112ac565b94505060806113bb8a828b016110f6565b93505060a06113cc8a828b016110f6565b92505060c088013567ffffffffffffffff8111156113ed576113ec6110d0565b5b6113f98a828b016112ac565b91505092959891949750929550565b611411816110d5565b82525050565b600060208201905061142c6000830184611408565b92915050565b600081519050919050565b600082825260208201905092915050565b60005b8381101561146c578082015181840152602081019050611451565b60008484015250505050565b600061148382611432565b61148d818561143d565b935061149d81856020860161144e565b6114a68161119e565b840191505092915050565b60006114bc82611138565b9050919050565b6114cc816114b1565b82525050565b60008115159050919050565b6114e7816114d2565b82525050565b600061018082019050611503600083018f611408565b8181036020830152611515818e611478565b90508181036040830152611529818d611478565b9050818103606083015261153d818c611478565b90508181036080830152611551818b611478565b905061156060a083018a611408565b61156d60c0830189611408565b81810360e083015261157f8188611478565b905061158f6101008301876114c3565b61159d6101208301866114de565b6115ab6101408301856114de565b6115b96101608301846114de565b9d9c50505050505050505050505050565b6115d3816110d5565b82525050565b600082825260208201905092915050565b60006115f582611432565b6115ff81856115d9565b935061160f81856020860161144e565b6116188161119e565b840191505092915050565b61162c816114b1565b82525050565b61163b816114d2565b82525050565b60006101808301600083015161165a60008601826115ca565b506020830151848203602086015261167282826115ea565b9150506040830151848203604086015261168c82826115ea565b915050606083015184820360608601526116a682826115ea565b915050608083015184820360808601526116c082826115ea565b91505060a08301516116d560a08601826115ca565b5060c08301516116e860c08601826115ca565b5060e083015184820360e086015261170082826115ea565b915050610100830151611717610100860182611623565b5061012083015161172c610120860182611632565b50610140830151611741610140860182611632565b50610160830151611756610160860182611632565b508091505092915050565b6000602082019050818103600083015261177b8184611641565b905092915050565b7f4f6e6c79206f776e65722063616e206c697374206c616e640000000000000000600082015250565b60006117b960188361143d565b91506117c482611783565b602082019050919050565b600060208201905081810360008301526117e8816117ac565b9050919050565b7f4c616e64206d7573742062652076657269666965642066697273740000000000600082015250565b6000611825601b8361143d565b9150611830826117ef565b602082019050919050565b6000602082019050818103600083015261185481611818565b9050919050565b7f4e487b7100000000000000000000000000000000000000000000000000000000600052601160045260246000fd5b6000611895826110d5565b91507fffffffffffffffffffffffffffffffffffffffffffffffffffffffffffffffff82036118c7576118c661185b565b5b600182019050919050565b7f4e487b7100000000000000000000000000000000000000000000000000000000600052602260045260246000fd5b6000600282049050600182168061191957607f821691505b60208210810361192c5761192b6118d2565b5b50919050565b60008190508160005260206000209050919050565b60006020601f8301049050919050565b600082821b905092915050565b6000600883026119947fffffffffffffffffffffffffffffffffffffffffffffffffffffffffffffffff82611957565b61199e8683611957565b95508019841693508086168417925050509392505050565b6000819050919050565b60006119db6119d66119d1846110d5565b6119b6565b6110d5565b9050919050565b6000819050919050565b6119f5836119c0565b611a09611a01826119e2565b848454611964565b825550505050565b600090565b611a1e611a11565b611a298184846119ec565b505050565b5b81811015611a4d57611a42600082611a16565b600181019050611a2f565b5050565b601f821115611a9257611a6381611932565b611a6c84611947565b81016020851015611a7b578190505b611a8f611a8785611947565b830182611a2e565b50505b505050565b600082821c905092915050565b6000611ab560001984600802611a97565b1980831691505092915050565b6000611ace8383611aa4565b9150826002028217905092915050565b611ae782611432565b67ffffffffffffffff811115611b0057611aff6111af565b5b611b0a8254611901565b611b15828285611a51565b600060209050601f831160018114611b485760008415611b36578287015190505b611b408582611ac2565b865550611ba8565b601f198416611b5686611932565b60005b82811015611b7e57848901518255600182019150602085019450602081019050611b59565b86831015611b9b5784890151611b97601f891682611aa4565b8355505b6001600288020188555050505b505050505050565b7f4c616e64206e6f7420666f722073616c65000000000000000000000000000000600082015250565b6000611be660118361143d565b9150611bf182611bb0565b602082019050919050565b60006020820190508181036000830152611c1581611bd9565b9050919050565b7f4e6f7420656e6f75676820457468657200000000000000000000000000000000600082015250565b6000611c5260108361143d565b9150611c5d82611c1c565b602082019050919050565b60006020820190508181036000830152611c8181611c45565b9050919050565b7f43616e6e6f7420627579206f776e206c616e6400000000000000000000000000600082015250565b6000611cbe60138361143d565b9150611cc982611c88565b602082019050919050565b60006020820190508181036000830152611ced81611cb1565b9050919050565b7f4f6e6c7920476f7665726e6d656e742063616e20706572666f726d207468697360008201527f20616374696f6e00000000000000000000000000000000000000000000000000602082015250565b6000611d5060278361143d565b9150611d5b82611cf4565b604082019050919050565b60006020820190508181036000830152611d7f81611d43565b9050919050565b7f4c616e64206e6f7420666f756e64000000000000000000000000000000000000600082015250565b6000611dbc600e8361143d565b9150611dc782611d86565b602082019050919050565b60006020820190508181036000830152611deb81611daf565b905091905056fea26469706673582212201fe3258b754a3bd6b99926ccac8a12e3550c48727414a671144d492268469f6764736f6c63430008130033",
  "linkReferences": {},
  "deployedLinkReferences": {}
}